{
  "abi": [
    {
      "type": "constructor",
      "inputs": [
        {
          "name": "_clientRegistry",
          "type": "address",
          "internalType": "address"
        }
      ],
      "stateMutability": "nonpayable"
    },
    {
      "type": "function",
      "name": "createAgreement",
      "inputs": [
        {
          "name": "dao",
          "type": "address",
          "internalType": "address"
        },
        {
          "name": "client",
          "type": "address",
          "internalType": "address"
        },
        {
          "name": "_paymentToken",
          "type": "address",
          "internalType": "address"
        },
        {
          "name": "_budget",
          "type": "uint256",
          "internalType": "uint256"
        },
        {
          "name": "milestones",
          "type": "tuple[]",
          "internalType": "struct ServiceAgreement.Milestone[]",
          "components": [
            {
              "name": "paymentAmount",
              "type": "uint256",
              "internalType": "uint256"
            },
            {
              "name": "isApproved",
              "type": "bool",
              "internalType": "bool"
            }
          ]
        }
      ],
      "outputs": [
        {
          "name": "",
          "type": "address",
          "internalType": "address"
        }
      ],
      "stateMutability": "nonpayable"
    },
    {
      "type": "function",
      "name": "ipfsHashes",
      "inputs": [
        {
          "name": "",
          "type": "string",
          "internalType": "string"
        }
      ],
      "outputs": [
        {
          "name": "",
          "type": "string",
          "internalType": "string"
        }
      ],
      "stateMutability": "view"
    },
    {
      "type": "function",
      "name": "setIPFSHash",
      "inputs": [
        {
          "name": "companyName",
          "type": "string",
          "internalType": "string"
        },
        {
          "name": "ipfsHash",
          "type": "string",
          "internalType": "string"
        }
      ],
      "outputs": [],
      "stateMutability": "nonpayable"
    },
    {
      "type": "function",
      "name": "template",
      "inputs": [],
      "outputs": [
        {
          "name": "",
          "type": "address",
          "internalType": "address"
        }
      ],
      "stateMutability": "view"
    },
    {
      "type": "event",
      "name": "AgreementDeployed",
      "inputs": [
        {
          "name": "client",
          "type": "address",
          "indexed": true,
          "internalType": "address"
        },
        {
          "name": "agreement",
          "type": "address",
          "indexed": false,
          "internalType": "address"
        }
      ],
      "anonymous": false
    },
    {
      "type": "error",
      "name": "AgreementFactory__UserNotFound",
      "inputs": []
    },
    {
      "type": "error",
      "name": "FailedDeployment",
      "inputs": []
    },
    {
      "type": "error",
      "name": "InsufficientBalance",
      "inputs": [
        {
          "name": "balance",
          "type": "uint256",
          "internalType": "uint256"
        },
        {
          "name": "needed",
          "type": "uint256",
          "internalType": "uint256"
        }
      ]
    }
  ],
  "bytecode": {
    "object": "0x608060405234801561000f575f5ffd5b506040516124eb3803806124eb83398181016040528101906100319190610146565b60405161003d906100db565b604051809103905ff080158015610056573d5f5f3e3d5ffd5b505f5f6101000a81548173ffffffffffffffffffffffffffffffffffffffff021916908373ffffffffffffffffffffffffffffffffffffffff1602179055508060015f6101000a81548173ffffffffffffffffffffffffffffffffffffffff021916908373ffffffffffffffffffffffffffffffffffffffff16021790555050610171565b61146e8061107d83390190565b5f5ffd5b5f73ffffffffffffffffffffffffffffffffffffffff82169050919050565b5f610115826100ec565b9050919050565b6101258161010b565b811461012f575f5ffd5b50565b5f815190506101408161011c565b92915050565b5f6020828403121561015b5761015a6100e8565b5b5f61016884828501610132565b91505092915050565b610eff8061017e5f395ff3fe608060405234801561000f575f5ffd5b506004361061004a575f3560e01c8063574d65541461004e5780636f2ddd931461006a578063b5b9cd9514610088578063baac0613146100b8575b5f5ffd5b6100686004803603810190610063919061061e565b6100e8565b005b610072610118565b60405161007f91906106d3565b60405180910390f35b6100a2600480360381019061009d91906106ec565b61013c565b6040516100af9190610793565b60405180910390f35b6100d260048036038101906100cd919061095a565b6101ef565b6040516100df91906106d3565b60405180910390f35b806002836040516100f99190610a27565b908152602001604051809103902090816101139190610c3a565b505050565b5f5f9054906101000a900473ffffffffffffffffffffffffffffffffffffffff1681565b6002818051602081018201805184825260208301602085012081835280955050505050505f91509050805461017090610a6a565b80601f016020809104026020016040519081016040528092919081815260200182805461019c90610a6a565b80156101e75780601f106101be576101008083540402835291602001916101e7565b820191905f5260205f20905b8154815290600101906020018083116101ca57829003601f168201915b505050505081565b5f60015f9054906101000a900473ffffffffffffffffffffffffffffffffffffffff1673ffffffffffffffffffffffffffffffffffffffff1663ca8e1b07336040518263ffffffff1660e01b815260040161024a91906106d3565b602060405180830381865afa158015610265573d5f5f3e3d5ffd5b505050506040513d601f19601f820116820180604052508101906102899190610d1d565b6102bf576040517fe8c943ad00000000000000000000000000000000000000000000000000000000815260040160405180910390fd5b5f6102ff5f5f9054906101000a900473ffffffffffffffffffffffffffffffffffffffff1673ffffffffffffffffffffffffffffffffffffffff166103ca565b90508073ffffffffffffffffffffffffffffffffffffffff16638ea11aa188888888886040518663ffffffff1660e01b8152600401610342959493929190610e4a565b5f604051808303815f87803b158015610359575f5ffd5b505af115801561036b573d5f5f3e3d5ffd5b505050508573ffffffffffffffffffffffffffffffffffffffff167fc29411569c7a0744e519123e8bd33f4c1ff35724ec8626d14bba84222c918742826040516103b591906106d3565b60405180910390a28091505095945050505050565b5f6103d5825f6103dc565b9050919050565b5f814710156104245747826040517fcf47918100000000000000000000000000000000000000000000000000000000815260040161041b929190610ea2565b60405180910390fd5b763d602d80600a3d3981f3363d3d373d3d3d363d730000008360601b60e81c175f526e5af43d82803e903d91602b57fd5bf38360781b176020526037600983f090505f73ffffffffffffffffffffffffffffffffffffffff168173ffffffffffffffffffffffffffffffffffffffff16036104cb576040517fb06ebf3d00000000000000000000000000000000000000000000000000000000815260040160405180910390fd5b92915050565b5f604051905090565b5f5ffd5b5f5ffd5b5f5ffd5b5f5ffd5b5f601f19601f8301169050919050565b7f4e487b71000000000000000000000000000000000000000000000000000000005f52604160045260245ffd5b610530826104ea565b810181811067ffffffffffffffff8211171561054f5761054e6104fa565b5b80604052505050565b5f6105616104d1565b905061056d8282610527565b919050565b5f67ffffffffffffffff82111561058c5761058b6104fa565b5b610595826104ea565b9050602081019050919050565b828183375f83830152505050565b5f6105c26105bd84610572565b610558565b9050828152602081018484840111156105de576105dd6104e6565b5b6105e98482856105a2565b509392505050565b5f82601f830112610605576106046104e2565b5b81356106158482602086016105b0565b91505092915050565b5f5f60408385031215610634576106336104da565b5b5f83013567ffffffffffffffff811115610651576106506104de565b5b61065d858286016105f1565b925050602083013567ffffffffffffffff81111561067e5761067d6104de565b5b61068a858286016105f1565b9150509250929050565b5f73ffffffffffffffffffffffffffffffffffffffff82169050919050565b5f6106bd82610694565b9050919050565b6106cd816106b3565b82525050565b5f6020820190506106e65f8301846106c4565b92915050565b5f60208284031215610701576107006104da565b5b5f82013567ffffffffffffffff81111561071e5761071d6104de565b5b61072a848285016105f1565b91505092915050565b5f81519050919050565b5f82825260208201905092915050565b8281835e5f83830152505050565b5f61076582610733565b61076f818561073d565b935061077f81856020860161074d565b610788816104ea565b840191505092915050565b5f6020820190508181035f8301526107ab818461075b565b905092915050565b6107bc816106b3565b81146107c6575f5ffd5b50565b5f813590506107d7816107b3565b92915050565b5f819050919050565b6107ef816107dd565b81146107f9575f5ffd5b50565b5f8135905061080a816107e6565b92915050565b5f67ffffffffffffffff82111561082a576108296104fa565b5b602082029050602081019050919050565b5f5ffd5b5f5ffd5b5f8115159050919050565b61085781610843565b8114610861575f5ffd5b50565b5f813590506108728161084e565b92915050565b5f6040828403121561088d5761088c61083f565b5b6108976040610558565b90505f6108a6848285016107fc565b5f8301525060206108b984828501610864565b60208301525092915050565b5f6108d76108d284610810565b610558565b905080838252602082019050604084028301858111156108fa576108f961083b565b5b835b81811015610923578061090f8882610878565b8452602084019350506040810190506108fc565b5050509392505050565b5f82601f830112610941576109406104e2565b5b81356109518482602086016108c5565b91505092915050565b5f5f5f5f5f60a08688031215610973576109726104da565b5b5f610980888289016107c9565b9550506020610991888289016107c9565b94505060406109a2888289016107c9565b93505060606109b3888289016107fc565b925050608086013567ffffffffffffffff8111156109d4576109d36104de565b5b6109e08882890161092d565b9150509295509295909350565b5f81905092915050565b5f610a0182610733565b610a0b81856109ed565b9350610a1b81856020860161074d565b80840191505092915050565b5f610a3282846109f7565b915081905092915050565b7f4e487b71000000000000000000000000000000000000000000000000000000005f52602260045260245ffd5b5f6002820490506001821680610a8157607f821691505b602082108103610a9457610a93610a3d565b5b50919050565b5f819050815f5260205f209050919050565b5f6020601f8301049050919050565b5f82821b905092915050565b5f60088302610af67fffffffffffffffffffffffffffffffffffffffffffffffffffffffffffffffff82610abb565b610b008683610abb565b95508019841693508086168417925050509392505050565b5f819050919050565b5f610b3b610b36610b31846107dd565b610b18565b6107dd565b9050919050565b5f819050919050565b610b5483610b21565b610b68610b6082610b42565b848454610ac7565b825550505050565b5f5f905090565b610b7f610b70565b610b8a818484610b4b565b505050565b5b81811015610bad57610ba25f82610b77565b600181019050610b90565b5050565b601f821115610bf257610bc381610a9a565b610bcc84610aac565b81016020851015610bdb578190505b610bef610be785610aac565b830182610b8f565b50505b505050565b5f82821c905092915050565b5f610c125f1984600802610bf7565b1980831691505092915050565b5f610c2a8383610c03565b9150826002028217905092915050565b610c4382610733565b67ffffffffffffffff811115610c5c57610c5b6104fa565b5b610c668254610a6a565b610c71828285610bb1565b5f60209050601f831160018114610ca2575f8415610c90578287015190505b610c9a8582610c1f565b865550610d01565b601f198416610cb086610a9a565b5f5b82811015610cd757848901518255600182019150602085019450602081019050610cb2565b86831015610cf45784890151610cf0601f891682610c03565b8355505b6001600288020188555050505b505050505050565b5f81519050610d178161084e565b92915050565b5f60208284031215610d3257610d316104da565b5b5f610d3f84828501610d09565b91505092915050565b610d51816107dd565b82525050565b5f81519050919050565b5f82825260208201905092915050565b5f819050602082019050919050565b610d89816107dd565b82525050565b610d9881610843565b82525050565b604082015f820151610db25f850182610d80565b506020820151610dc56020850182610d8f565b50505050565b5f610dd68383610d9e565b60408301905092915050565b5f602082019050919050565b5f610df882610d57565b610e028185610d61565b9350610e0d83610d71565b805f5b83811015610e3d578151610e248882610dcb565b9750610e2f83610de2565b925050600181019050610e10565b5085935050505092915050565b5f60a082019050610e5d5f8301886106c4565b610e6a60208301876106c4565b610e7760408301866106c4565b610e846060830185610d48565b8181036080830152610e968184610dee565b90509695505050505050565b5f604082019050610eb55f830185610d48565b610ec26020830184610d48565b939250505056fea2646970667358221220273244eb3d9657deca4211670580438a6f5caa8a0d0cf711fae841091afdf57d64736f6c634300081c00336080604052348015600e575f5ffd5b5060015f8190555061144b806100235f395ff3fe608060405234801561000f575f5ffd5b506004361061009c575f3560e01c8063aa5e215311610064578063aa5e215314610134578063c438b40f1461013e578063cf6ad8761461015a578063e89e4ed614610164578063ed01bf29146101955761009c565b8063109e94cf146100a0578063200d2ed2146100be5780633013ce29146100dc5780634162169f146100fa5780638ea11aa114610118575b5f5ffd5b6100a86101b3565b6040516100b59190610d6c565b60405180910390f35b6100c66101d8565b6040516100d39190610df8565b60405180910390f35b6100e46101ea565b6040516100f19190610d6c565b60405180910390f35b61010261020f565b60405161010f9190610d6c565b60405180910390f35b610132600480360381019061012d9190611055565b610235565b005b61013c61043b565b005b610158600480360381019061015391906110e8565b610609565b005b61016261091f565b005b61017e600480360381019061017991906110e8565b610c9f565b60405161018c929190611131565b60405180910390f35b61019d610cda565b6040516101aa9190611158565b60405180910390f35b60015f9054906101000a900473ffffffffffffffffffffffffffffffffffffffff1681565b60045f9054906101000a900460ff1681565b60025f9054906101000a900473ffffffffffffffffffffffffffffffffffffffff1681565b600460019054906101000a900473ffffffffffffffffffffffffffffffffffffffff1681565b5f73ffffffffffffffffffffffffffffffffffffffff1660015f9054906101000a900473ffffffffffffffffffffffffffffffffffffffff1673ffffffffffffffffffffffffffffffffffffffff16146102bb576040517f38c6fecc00000000000000000000000000000000000000000000000000000000815260040160405180910390fd5b84600460016101000a81548173ffffffffffffffffffffffffffffffffffffffff021916908373ffffffffffffffffffffffffffffffffffffffff1602179055508360015f6101000a81548173ffffffffffffffffffffffffffffffffffffffff021916908373ffffffffffffffffffffffffffffffffffffffff1602179055508260025f6101000a81548173ffffffffffffffffffffffffffffffffffffffff021916908373ffffffffffffffffffffffffffffffffffffffff160217905550816005819055505f5f90505b815181101561040a5760038282815181106103a6576103a5611171565b5b6020026020010151908060018154018082558091505060019003905f5260205f2090600202015f909190919091505f820151815f01556020820151816001015f6101000a81548160ff02191690831515021790555050508080600101915050610388565b505f60045f6101000a81548160ff0219169083600281111561042f5761042e610d85565b5b02179055505050505050565b5f600281111561044e5761044d610d85565b5b60045f9054906101000a900460ff16600281111561046f5761046e610d85565b5b146104af576040517f08c379a00000000000000000000000000000000000000000000000000000000081526004016104a6906111f8565b60405180910390fd5b6104b7610ce0565b5f73ffffffffffffffffffffffffffffffffffffffff1660015f9054906101000a900473ffffffffffffffffffffffffffffffffffffffff1673ffffffffffffffffffffffffffffffffffffffff160361053d576040517f97212ff900000000000000000000000000000000000000000000000000000000815260040160405180910390fd5b60025f9054906101000a900473ffffffffffffffffffffffffffffffffffffffff1673ffffffffffffffffffffffffffffffffffffffff166323b872dd60015f9054906101000a900473ffffffffffffffffffffffffffffffffffffffff16306005546040518463ffffffff1660e01b81526004016105be93929190611216565b6020604051808303815f875af11580156105da573d5f5f3e3d5ffd5b505050506040513d601f19601f820116820180604052508101906105fe919061125f565b50610607610d24565b565b5f600281111561061c5761061b610d85565b5b60045f9054906101000a900460ff16600281111561063d5761063c610d85565b5b1461067d576040517f08c379a0000000000000000000000000000000000000000000000000000000008152600401610674906111f8565b60405180910390fd5b610685610ce0565b5f81108061069857506003805490508110155b156106cf576040517f9c381f2e00000000000000000000000000000000000000000000000000000000815260040160405180910390fd5b5f600382815481106106e4576106e3611171565b5b905f5260205f2090600202019050806001015f9054906101000a900460ff161561073a576040517fa1b97c2d00000000000000000000000000000000000000000000000000000000815260040160405180910390fd5b60025f9054906101000a900473ffffffffffffffffffffffffffffffffffffffff1673ffffffffffffffffffffffffffffffffffffffff1663a9059cbb600460019054906101000a900473ffffffffffffffffffffffffffffffffffffffff16835f01546040518363ffffffff1660e01b81526004016107bb92919061128a565b6020604051808303815f875af11580156107d7573d5f5f3e3d5ffd5b505050506040513d601f19601f820116820180604052508101906107fb919061125f565b506001816001015f6101000a81548160ff021916908315150217905550817f553edf5d6a50b30b5e1faa5428a9962e9b3af648e5ab3791bf7e79ccb10f7f55600460019054906101000a900473ffffffffffffffffffffffffffffffffffffffff1660405161086a9190610d6c565b60405180910390a27f4156924bd7e340b19303af17bf5323d66fae5dc16f350319092e0839c8543683815f0154600460019054906101000a900473ffffffffffffffffffffffffffffffffffffffff166040516108c89291906112b1565b60405180910390a160016003805490506108e29190611305565b820361091357600160045f6101000a81548160ff0219169083600281111561090d5761090c610d85565b5b02179055505b5061091c610d24565b50565b5f600281111561093257610931610d85565b5b60045f9054906101000a900460ff16600281111561095357610952610d85565b5b14610993576040517f08c379a000000000000000000000000000000000000000000000000000000000815260040161098a906111f8565b60405180910390fd5b61099b610ce0565b60015f9054906101000a900473ffffffffffffffffffffffffffffffffffffffff1673ffffffffffffffffffffffffffffffffffffffff163373ffffffffffffffffffffffffffffffffffffffff1614610a21576040517fd85251a800000000000000000000000000000000000000000000000000000000815260040160405180910390fd5b600260045f6101000a81548160ff02191690836002811115610a4657610a45610d85565b5b02179055505f60025f9054906101000a900473ffffffffffffffffffffffffffffffffffffffff1673ffffffffffffffffffffffffffffffffffffffff166370a08231306040518263ffffffff1660e01b8152600401610aa69190610d6c565b602060405180830381865afa158015610ac1573d5f5f3e3d5ffd5b505050506040513d601f19601f82011682018060405250810190610ae5919061134c565b905060025f9054906101000a900473ffffffffffffffffffffffffffffffffffffffff1673ffffffffffffffffffffffffffffffffffffffff1663a9059cbb60015f9054906101000a900473ffffffffffffffffffffffffffffffffffffffff166064605a85610b559190611377565b610b5f91906113e5565b6040518363ffffffff1660e01b8152600401610b7c92919061128a565b6020604051808303815f875af1158015610b98573d5f5f3e3d5ffd5b505050506040513d601f19601f82011682018060405250810190610bbc919061125f565b5060025f9054906101000a900473ffffffffffffffffffffffffffffffffffffffff1673ffffffffffffffffffffffffffffffffffffffff1663a9059cbb600460019054906101000a900473ffffffffffffffffffffffffffffffffffffffff166064600a85610c2c9190611377565b610c3691906113e5565b6040518363ffffffff1660e01b8152600401610c5392919061128a565b6020604051808303815f875af1158015610c6f573d5f5f3e3d5ffd5b505050506040513d601f19601f82011682018060405250810190610c93919061125f565b5050610c9d610d24565b565b60038181548110610cae575f80fd5b905f5260205f2090600202015f91509050805f015490806001015f9054906101000a900460ff16905082565b60055481565b60025f5403610d1b576040517f3ee5aeb500000000000000000000000000000000000000000000000000000000815260040160405180910390fd5b60025f81905550565b60015f81905550565b5f73ffffffffffffffffffffffffffffffffffffffff82169050919050565b5f610d5682610d2d565b9050919050565b610d6681610d4c565b82525050565b5f602082019050610d7f5f830184610d5d565b92915050565b7f4e487b71000000000000000000000000000000000000000000000000000000005f52602160045260245ffd5b60038110610dc357610dc2610d85565b5b50565b5f819050610dd382610db2565b919050565b5f610de282610dc6565b9050919050565b610df281610dd8565b82525050565b5f602082019050610e0b5f830184610de9565b92915050565b5f604051905090565b5f5ffd5b5f5ffd5b610e2b81610d4c565b8114610e35575f5ffd5b50565b5f81359050610e4681610e22565b92915050565b5f819050919050565b610e5e81610e4c565b8114610e68575f5ffd5b50565b5f81359050610e7981610e55565b92915050565b5f5ffd5b5f601f19601f8301169050919050565b7f4e487b71000000000000000000000000000000000000000000000000000000005f52604160045260245ffd5b610ec982610e83565b810181811067ffffffffffffffff82111715610ee857610ee7610e93565b5b80604052505050565b5f610efa610e11565b9050610f068282610ec0565b919050565b5f67ffffffffffffffff821115610f2557610f24610e93565b5b602082029050602081019050919050565b5f5ffd5b5f5ffd5b5f8115159050919050565b610f5281610f3e565b8114610f5c575f5ffd5b50565b5f81359050610f6d81610f49565b92915050565b5f60408284031215610f8857610f87610f3a565b5b610f926040610ef1565b90505f610fa184828501610e6b565b5f830152506020610fb484828501610f5f565b60208301525092915050565b5f610fd2610fcd84610f0b565b610ef1565b90508083825260208201905060408402830185811115610ff557610ff4610f36565b5b835b8181101561101e578061100a8882610f73565b845260208401935050604081019050610ff7565b5050509392505050565b5f82601f83011261103c5761103b610e7f565b5b813561104c848260208601610fc0565b91505092915050565b5f5f5f5f5f60a0868803121561106e5761106d610e1a565b5b5f61107b88828901610e38565b955050602061108c88828901610e38565b945050604061109d88828901610e38565b93505060606110ae88828901610e6b565b925050608086013567ffffffffffffffff8111156110cf576110ce610e1e565b5b6110db88828901611028565b9150509295509295909350565b5f602082840312156110fd576110fc610e1a565b5b5f61110a84828501610e6b565b91505092915050565b61111c81610e4c565b82525050565b61112b81610f3e565b82525050565b5f6040820190506111445f830185611113565b6111516020830184611122565b9392505050565b5f60208201905061116b5f830184611113565b92915050565b7f4e487b71000000000000000000000000000000000000000000000000000000005f52603260045260245ffd5b5f82825260208201905092915050565b7f41677265656d656e7420696e61637469766500000000000000000000000000005f82015250565b5f6111e260128361119e565b91506111ed826111ae565b602082019050919050565b5f6020820190508181035f83015261120f816111d6565b9050919050565b5f6060820190506112295f830186610d5d565b6112366020830185610d5d565b6112436040830184611113565b949350505050565b5f8151905061125981610f49565b92915050565b5f6020828403121561127457611273610e1a565b5b5f6112818482850161124b565b91505092915050565b5f60408201905061129d5f830185610d5d565b6112aa6020830184611113565b9392505050565b5f6040820190506112c45f830185611113565b6112d16020830184610d5d565b9392505050565b7f4e487b71000000000000000000000000000000000000000000000000000000005f52601160045260245ffd5b5f61130f82610e4c565b915061131a83610e4c565b9250828203905081811115611332576113316112d8565b5b92915050565b5f8151905061134681610e55565b92915050565b5f6020828403121561136157611360610e1a565b5b5f61136e84828501611338565b91505092915050565b5f61138182610e4c565b915061138c83610e4c565b925082820261139a81610e4c565b915082820484148315176113b1576113b06112d8565b5b5092915050565b7f4e487b71000000000000000000000000000000000000000000000000000000005f52601260045260245ffd5b5f6113ef82610e4c565b91506113fa83610e4c565b92508261140a576114096113b8565b5b82820490509291505056fea26469706673582212203e8d1f79ebcb0ceae98ddb727972ba4b4a3dd90cc39602afaec95f9d47e6171e64736f6c634300081c0033",
    "linkReferences": {}
  },
  "methodIdentifiers": {
    "createAgreement(address,address,address,uint256,(uint256,bool)[])": "baac0613",
    "ipfsHashes(string)": "b5b9cd95",
    "setIPFSHash(string,string)": "574d6554",
    "template()": "6f2ddd93"
  },
  "id": 41
}