{
    "abi": [
        {
            "type": "constructor",
            "inputs": [],
            "stateMutability": "nonpayable"
        },
        {
            "type": "function",
            "name": "approve",
            "inputs": [
                {
                    "name": "to",
                    "type": "address",
                    "internalType": "address"
                },
                {
                    "name": "tokenId",
                    "type": "uint256",
                    "internalType": "uint256"
                }
            ],
            "outputs": [],
            "stateMutability": "nonpayable"
        },
        {
            "type": "function",
            "name": "balanceOf",
            "inputs": [
                {
                    "name": "owner",
                    "type": "address",
                    "internalType": "address"
                }
            ],
            "outputs": [
                {
                    "name": "",
                    "type": "uint256",
                    "internalType": "uint256"
                }
            ],
            "stateMutability": "view"
        },
        {
            "type": "function",
            "name": "getApproved",
            "inputs": [
                {
                    "name": "tokenId",
                    "type": "uint256",
                    "internalType": "uint256"
                }
            ],
            "outputs": [
                {
                    "name": "",
                    "type": "address",
                    "internalType": "address"
                }
            ],
            "stateMutability": "view"
        },
        {
            "type": "function",
            "name": "isApprovedForAll",
            "inputs": [
                {
                    "name": "owner",
                    "type": "address",
                    "internalType": "address"
                },
                {
                    "name": "operator",
                    "type": "address",
                    "internalType": "address"
                }
            ],
            "outputs": [
                {
                    "name": "",
                    "type": "bool",
                    "internalType": "bool"
                }
            ],
            "stateMutability": "view"
        },
        {
            "type": "function",
            "name": "isOnboarded",
            "inputs": [
                {
                    "name": "",
                    "type": "address",
                    "internalType": "address"
                }
            ],
            "outputs": [
                {
                    "name": "",
                    "type": "bool",
                    "internalType": "bool"
                }
            ],
            "stateMutability": "view"
        },
        {
            "type": "function",
            "name": "name",
            "inputs": [],
            "outputs": [
                {
                    "name": "",
                    "type": "string",
                    "internalType": "string"
                }
            ],
            "stateMutability": "view"
        },
        {
            "type": "function",
            "name": "onboardClient",
            "inputs": [],
            "outputs": [],
            "stateMutability": "nonpayable"
        },
        {
            "type": "function",
            "name": "ownerOf",
            "inputs": [
                {
                    "name": "tokenId",
                    "type": "uint256",
                    "internalType": "uint256"
                }
            ],
            "outputs": [
                {
                    "name": "",
                    "type": "address",
                    "internalType": "address"
                }
            ],
            "stateMutability": "view"
        },
        {
            "type": "function",
            "name": "safeTransferFrom",
            "inputs": [
                {
                    "name": "from",
                    "type": "address",
                    "internalType": "address"
                },
                {
                    "name": "to",
                    "type": "address",
                    "internalType": "address"
                },
                {
                    "name": "tokenId",
                    "type": "uint256",
                    "internalType": "uint256"
                }
            ],
            "outputs": [],
            "stateMutability": "nonpayable"
        },
        {
            "type": "function",
            "name": "safeTransferFrom",
            "inputs": [
                {
                    "name": "from",
                    "type": "address",
                    "internalType": "address"
                },
                {
                    "name": "to",
                    "type": "address",
                    "internalType": "address"
                },
                {
                    "name": "tokenId",
                    "type": "uint256",
                    "internalType": "uint256"
                },
                {
                    "name": "data",
                    "type": "bytes",
                    "internalType": "bytes"
                }
            ],
            "outputs": [],
            "stateMutability": "nonpayable"
        },
        {
            "type": "function",
            "name": "setApprovalForAll",
            "inputs": [
                {
                    "name": "operator",
                    "type": "address",
                    "internalType": "address"
                },
                {
                    "name": "approved",
                    "type": "bool",
                    "internalType": "bool"
                }
            ],
            "outputs": [],
            "stateMutability": "nonpayable"
        },
        {
            "type": "function",
            "name": "supportsInterface",
            "inputs": [
                {
                    "name": "interfaceId",
                    "type": "bytes4",
                    "internalType": "bytes4"
                }
            ],
            "outputs": [
                {
                    "name": "",
                    "type": "bool",
                    "internalType": "bool"
                }
            ],
            "stateMutability": "view"
        },
        {
            "type": "function",
            "name": "symbol",
            "inputs": [],
            "outputs": [
                {
                    "name": "",
                    "type": "string",
                    "internalType": "string"
                }
            ],
            "stateMutability": "view"
        },
        {
            "type": "function",
            "name": "tokenURI",
            "inputs": [
                {
                    "name": "tokenId",
                    "type": "uint256",
                    "internalType": "uint256"
                }
            ],
            "outputs": [
                {
                    "name": "",
                    "type": "string",
                    "internalType": "string"
                }
            ],
            "stateMutability": "view"
        },
        {
            "type": "function",
            "name": "totalSupply",
            "inputs": [],
            "outputs": [
                {
                    "name": "",
                    "type": "uint256",
                    "internalType": "uint256"
                }
            ],
            "stateMutability": "view"
        },
        {
            "type": "function",
            "name": "transferFrom",
            "inputs": [
                {
                    "name": "from",
                    "type": "address",
                    "internalType": "address"
                },
                {
                    "name": "to",
                    "type": "address",
                    "internalType": "address"
                },
                {
                    "name": "tokenId",
                    "type": "uint256",
                    "internalType": "uint256"
                }
            ],
            "outputs": [],
            "stateMutability": "nonpayable"
        },
        {
            "type": "event",
            "name": "Approval",
            "inputs": [
                {
                    "name": "owner",
                    "type": "address",
                    "indexed": true,
                    "internalType": "address"
                },
                {
                    "name": "approved",
                    "type": "address",
                    "indexed": true,
                    "internalType": "address"
                },
                {
                    "name": "tokenId",
                    "type": "uint256",
                    "indexed": true,
                    "internalType": "uint256"
                }
            ],
            "anonymous": false
        },
        {
            "type": "event",
            "name": "ApprovalForAll",
            "inputs": [
                {
                    "name": "owner",
                    "type": "address",
                    "indexed": true,
                    "internalType": "address"
                },
                {
                    "name": "operator",
                    "type": "address",
                    "indexed": true,
                    "internalType": "address"
                },
                {
                    "name": "approved",
                    "type": "bool",
                    "indexed": false,
                    "internalType": "bool"
                }
            ],
            "anonymous": false
        },
        {
            "type": "event",
            "name": "ClientOnboarded",
            "inputs": [
                {
                    "name": "user",
                    "type": "address",
                    "indexed": true,
                    "internalType": "address"
                },
                {
                    "name": "totalSupply",
                    "type": "uint256",
                    "indexed": false,
                    "internalType": "uint256"
                }
            ],
            "anonymous": false
        },
        {
            "type": "event",
            "name": "Transfer",
            "inputs": [
                {
                    "name": "from",
                    "type": "address",
                    "indexed": true,
                    "internalType": "address"
                },
                {
                    "name": "to",
                    "type": "address",
                    "indexed": true,
                    "internalType": "address"
                },
                {
                    "name": "tokenId",
                    "type": "uint256",
                    "indexed": true,
                    "internalType": "uint256"
                }
            ],
            "anonymous": false
        },
        {
            "type": "error",
            "name": "ClientRegistry__AlreadyOnboadred",
            "inputs": []
        },
        {
            "type": "error",
            "name": "ClientRegistry__InsuffcientNFT",
            "inputs": []
        },
        {
            "type": "error",
            "name": "ERC721IncorrectOwner",
            "inputs": [
                {
                    "name": "sender",
                    "type": "address",
                    "internalType": "address"
                },
                {
                    "name": "tokenId",
                    "type": "uint256",
                    "internalType": "uint256"
                },
                {
                    "name": "owner",
                    "type": "address",
                    "internalType": "address"
                }
            ]
        },
        {
            "type": "error",
            "name": "ERC721InsufficientApproval",
            "inputs": [
                {
                    "name": "operator",
                    "type": "address",
                    "internalType": "address"
                },
                {
                    "name": "tokenId",
                    "type": "uint256",
                    "internalType": "uint256"
                }
            ]
        },
        {
            "type": "error",
            "name": "ERC721InvalidApprover",
            "inputs": [
                {
                    "name": "approver",
                    "type": "address",
                    "internalType": "address"
                }
            ]
        },
        {
            "type": "error",
            "name": "ERC721InvalidOperator",
            "inputs": [
                {
                    "name": "operator",
                    "type": "address",
                    "internalType": "address"
                }
            ]
        },
        {
            "type": "error",
            "name": "ERC721InvalidOwner",
            "inputs": [
                {
                    "name": "owner",
                    "type": "address",
                    "internalType": "address"
                }
            ]
        },
        {
            "type": "error",
            "name": "ERC721InvalidReceiver",
            "inputs": [
                {
                    "name": "receiver",
                    "type": "address",
                    "internalType": "address"
                }
            ]
        },
        {
            "type": "error",
            "name": "ERC721InvalidSender",
            "inputs": [
                {
                    "name": "sender",
                    "type": "address",
                    "internalType": "address"
                }
            ]
        },
        {
            "type": "error",
            "name": "ERC721NonexistentToken",
            "inputs": [
                {
                    "name": "tokenId",
                    "type": "uint256",
                    "internalType": "uint256"
                }
            ]
        }
    ],
    "bytecode": {
        "object": "0x608060405234801561000f575f5ffd5b506040518060400160405280600b81526020017f56656e7461726b204e46540000000000000000000000000000000000000000008152506040518060400160405280600581526020017f56454e5441000000000000000000000000000000000000000000000000000000815250815f908161008a91906102df565b50806001908161009a91906102df565b5050506103ae565b5f81519050919050565b7f4e487b71000000000000000000000000000000000000000000000000000000005f52604160045260245ffd5b7f4e487b71000000000000000000000000000000000000000000000000000000005f52602260045260245ffd5b5f600282049050600182168061011d57607f821691505b6020821081036101305761012f6100d9565b5b50919050565b5f819050815f5260205f209050919050565b5f6020601f8301049050919050565b5f82821b905092915050565b5f600883026101927fffffffffffffffffffffffffffffffffffffffffffffffffffffffffffffffff82610157565b61019c8683610157565b95508019841693508086168417925050509392505050565b5f819050919050565b5f819050919050565b5f6101e06101db6101d6846101b4565b6101bd565b6101b4565b9050919050565b5f819050919050565b6101f9836101c6565b61020d610205826101e7565b848454610163565b825550505050565b5f5f905090565b610224610215565b61022f8184846101f0565b505050565b5b81811015610252576102475f8261021c565b600181019050610235565b5050565b601f8211156102975761026881610136565b61027184610148565b81016020851015610280578190505b61029461028c85610148565b830182610234565b50505b505050565b5f82821c905092915050565b5f6102b75f198460080261029c565b1980831691505092915050565b5f6102cf83836102a8565b9150826002028217905092915050565b6102e8826100a2565b67ffffffffffffffff811115610301576103006100ac565b5b61030b8254610106565b610316828285610256565b5f60209050601f831160018114610347575f8415610335578287015190505b61033f85826102c4565b8655506103a6565b601f19841661035586610136565b5f5b8281101561037c57848901518255600182019150602085019450602081019050610357565b868310156103995784890151610395601f8916826102a8565b8355505b6001600288020188555050505b505050505050565b611f60806103bb5f395ff3fe608060405234801561000f575f5ffd5b50600436106100fe575f3560e01c80636972d45a11610095578063b88d4fde11610064578063b88d4fde14610296578063c87b56dd146102b2578063ca8e1b07146102e2578063e985e9c514610312576100fe565b80636972d45a1461022257806370a082311461022c57806395d89b411461025c578063a22cb4651461027a576100fe565b806318160ddd116100d157806318160ddd1461019c57806323b872dd146101ba57806342842e0e146101d65780636352211e146101f2576100fe565b806301ffc9a71461010257806306fdde0314610132578063081812fc14610150578063095ea7b314610180575b5f5ffd5b61011c60048036038101906101179190611797565b610342565b60405161012991906117dc565b60405180910390f35b61013a610423565b6040516101479190611865565b60405180910390f35b61016a600480360381019061016591906118b8565b6104b2565b6040516101779190611922565b60405180910390f35b61019a60048036038101906101959190611965565b6104cd565b005b6101a46104e3565b6040516101b191906119b2565b60405180910390f35b6101d460048036038101906101cf91906119cb565b6104e9565b005b6101f060048036038101906101eb91906119cb565b6105e8565b005b61020c600480360381019061020791906118b8565b610607565b6040516102199190611922565b60405180910390f35b61022a610618565b005b61024660048036038101906102419190611a1b565b61075f565b60405161025391906119b2565b60405180910390f35b610264610815565b6040516102719190611865565b60405180910390f35b610294600480360381019061028f9190611a70565b6108a5565b005b6102b060048036038101906102ab9190611bda565b6108bb565b005b6102cc60048036038101906102c791906118b8565b6108e0565b6040516102d99190611865565b60405180910390f35b6102fc60048036038101906102f79190611a1b565b610946565b60405161030991906117dc565b60405180910390f35b61032c60048036038101906103279190611c5a565b610963565b60405161033991906117dc565b60405180910390f35b5f7f80ac58cd000000000000000000000000000000000000000000000000000000007bffffffffffffffffffffffffffffffffffffffffffffffffffffffff1916827bffffffffffffffffffffffffffffffffffffffffffffffffffffffff1916148061040c57507f5b5e139f000000000000000000000000000000000000000000000000000000007bffffffffffffffffffffffffffffffffffffffffffffffffffffffff1916827bffffffffffffffffffffffffffffffffffffffffffffffffffffffff1916145b8061041c575061041b826109f1565b5b9050919050565b60605f805461043190611cc5565b80601f016020809104026020016040519081016040528092919081815260200182805461045d90611cc5565b80156104a85780601f1061047f576101008083540402835291602001916104a8565b820191905f5260205f20905b81548152906001019060200180831161048b57829003601f168201915b5050505050905090565b5f6104bc82610a5a565b506104c682610ae0565b9050919050565b6104df82826104da610b19565b610b20565b5050565b60065481565b5f73ffffffffffffffffffffffffffffffffffffffff168273ffffffffffffffffffffffffffffffffffffffff1603610559575f6040517f64a0ae920000000000000000000000000000000000000000000000000000000081526004016105509190611922565b60405180910390fd5b5f61056c8383610567610b19565b610b32565b90508373ffffffffffffffffffffffffffffffffffffffff168173ffffffffffffffffffffffffffffffffffffffff16146105e2578382826040517f64283d7b0000000000000000000000000000000000000000000000000000000081526004016105d993929190611cf5565b60405180910390fd5b50505050565b61060283838360405180602001604052805f8152506108bb565b505050565b5f61061182610a5a565b9050919050565b60075f3373ffffffffffffffffffffffffffffffffffffffff1673ffffffffffffffffffffffffffffffffffffffff1681526020019081526020015f205f9054906101000a900460ff1615610699576040517f574632fd00000000000000000000000000000000000000000000000000000000815260040160405180910390fd5b6106b83360065f8154809291906106af90611d57565b91905055610d3d565b600160075f3373ffffffffffffffffffffffffffffffffffffffff1673ffffffffffffffffffffffffffffffffffffffff1681526020019081526020015f205f6101000a81548160ff0219169083151502179055503373ffffffffffffffffffffffffffffffffffffffff167fd8c24972d6074220a0f5a6646b488b4c722e9fef8be1405f5c4195da0dc7576560065460405161075591906119b2565b60405180910390a2565b5f5f73ffffffffffffffffffffffffffffffffffffffff168273ffffffffffffffffffffffffffffffffffffffff16036107d0575f6040517f89c62b640000000000000000000000000000000000000000000000000000000081526004016107c79190611922565b60405180910390fd5b60035f8373ffffffffffffffffffffffffffffffffffffffff1673ffffffffffffffffffffffffffffffffffffffff1681526020019081526020015f20549050919050565b60606001805461082490611cc5565b80601f016020809104026020016040519081016040528092919081815260200182805461085090611cc5565b801561089b5780601f106108725761010080835404028352916020019161089b565b820191905f5260205f20905b81548152906001019060200180831161087e57829003601f168201915b5050505050905090565b6108b76108b0610b19565b8383610d5a565b5050565b6108c68484846104e9565b6108da6108d1610b19565b85858585610ec3565b50505050565b60606108eb82610a5a565b505f6108f561106f565b90505f8151116109135760405180602001604052805f81525061093e565b8061091d84611085565b60405160200161092e929190611dd8565b6040516020818303038152906040525b915050919050565b6007602052805f5260405f205f915054906101000a900460ff1681565b5f60055f8473ffffffffffffffffffffffffffffffffffffffff1673ffffffffffffffffffffffffffffffffffffffff1681526020019081526020015f205f8373ffffffffffffffffffffffffffffffffffffffff1673ffffffffffffffffffffffffffffffffffffffff1681526020019081526020015f205f9054906101000a900460ff16905092915050565b5f7f01ffc9a7000000000000000000000000000000000000000000000000000000007bffffffffffffffffffffffffffffffffffffffffffffffffffffffff1916827bffffffffffffffffffffffffffffffffffffffffffffffffffffffff1916149050919050565b5f5f610a658361114f565b90505f73ffffffffffffffffffffffffffffffffffffffff168173ffffffffffffffffffffffffffffffffffffffff1603610ad757826040517f7e273289000000000000000000000000000000000000000000000000000000008152600401610ace91906119b2565b60405180910390fd5b80915050919050565b5f60045f8381526020019081526020015f205f9054906101000a900473ffffffffffffffffffffffffffffffffffffffff169050919050565b5f33905090565b610b2d8383836001611188565b505050565b5f5f610b3d8461114f565b90505f73ffffffffffffffffffffffffffffffffffffffff168373ffffffffffffffffffffffffffffffffffffffff1614610b7e57610b7d818486611347565b5b5f73ffffffffffffffffffffffffffffffffffffffff168173ffffffffffffffffffffffffffffffffffffffff1614610c0957610bbd5f855f5f611188565b600160035f8373ffffffffffffffffffffffffffffffffffffffff1673ffffffffffffffffffffffffffffffffffffffff1681526020019081526020015f205f82825403925050819055505b5f73ffffffffffffffffffffffffffffffffffffffff168573ffffffffffffffffffffffffffffffffffffffff1614610c8857600160035f8773ffffffffffffffffffffffffffffffffffffffff1673ffffffffffffffffffffffffffffffffffffffff1681526020019081526020015f205f82825401925050819055505b8460025f8681526020019081526020015f205f6101000a81548173ffffffffffffffffffffffffffffffffffffffff021916908373ffffffffffffffffffffffffffffffffffffffff160217905550838573ffffffffffffffffffffffffffffffffffffffff168273ffffffffffffffffffffffffffffffffffffffff167fddf252ad1be2c89b69c2b068fc378daa952ba7f163c4a11628f55a4df523b3ef60405160405180910390a4809150509392505050565b610d56828260405180602001604052805f81525061140a565b5050565b5f73ffffffffffffffffffffffffffffffffffffffff168273ffffffffffffffffffffffffffffffffffffffff1603610dca57816040517f5b08ba18000000000000000000000000000000000000000000000000000000008152600401610dc19190611922565b60405180910390fd5b8060055f8573ffffffffffffffffffffffffffffffffffffffff1673ffffffffffffffffffffffffffffffffffffffff1681526020019081526020015f205f8473ffffffffffffffffffffffffffffffffffffffff1673ffffffffffffffffffffffffffffffffffffffff1681526020019081526020015f205f6101000a81548160ff0219169083151502179055508173ffffffffffffffffffffffffffffffffffffffff168373ffffffffffffffffffffffffffffffffffffffff167f17307eab39ab6107e8899845ad3d59bd9653f200f220920489ca2b5937696c3183604051610eb691906117dc565b60405180910390a3505050565b5f8373ffffffffffffffffffffffffffffffffffffffff163b1115611068578273ffffffffffffffffffffffffffffffffffffffff1663150b7a02868685856040518563ffffffff1660e01b8152600401610f219493929190611e4d565b6020604051808303815f875af1925050508015610f5c57506040513d601f19601f82011682018060405250810190610f599190611eab565b60015b610fdd573d805f8114610f8a576040519150601f19603f3d011682016040523d82523d5f602084013e610f8f565b606091505b505f815103610fd557836040517f64a0ae92000000000000000000000000000000000000000000000000000000008152600401610fcc9190611922565b60405180910390fd5b805181602001fd5b63150b7a0260e01b7bffffffffffffffffffffffffffffffffffffffffffffffffffffffff1916817bffffffffffffffffffffffffffffffffffffffffffffffffffffffff19161461106657836040517f64a0ae9200000000000000000000000000000000000000000000000000000000815260040161105d9190611922565b60405180910390fd5b505b5050505050565b606060405180602001604052805f815250905090565b60605f60016110938461142d565b0190505f8167ffffffffffffffff8111156110b1576110b0611ab6565b5b6040519080825280601f01601f1916602001820160405280156110e35781602001600182028036833780820191505090505b5090505f82602001820190505b600115611144578080600190039150507f3031323334353637383961626364656600000000000000000000000000000000600a86061a8153600a858161113957611138611ed6565b5b0494505f85036110f0575b819350505050919050565b5f60025f8381526020019081526020015f205f9054906101000a900473ffffffffffffffffffffffffffffffffffffffff169050919050565b80806111c057505f73ffffffffffffffffffffffffffffffffffffffff168273ffffffffffffffffffffffffffffffffffffffff1614155b156112f2575f6111cf84610a5a565b90505f73ffffffffffffffffffffffffffffffffffffffff168373ffffffffffffffffffffffffffffffffffffffff161415801561123957508273ffffffffffffffffffffffffffffffffffffffff168173ffffffffffffffffffffffffffffffffffffffff1614155b801561124c575061124a8184610963565b155b1561128e57826040517fa9fbf51f0000000000000000000000000000000000000000000000000000000081526004016112859190611922565b60405180910390fd5b81156112f057838573ffffffffffffffffffffffffffffffffffffffff168273ffffffffffffffffffffffffffffffffffffffff167f8c5be1e5ebec7d5bd14f71427d1e84f3dd0314c0f7b2291e5b200ac8c7c3b92560405160405180910390a45b505b8360045f8581526020019081526020015f205f6101000a81548173ffffffffffffffffffffffffffffffffffffffff021916908373ffffffffffffffffffffffffffffffffffffffff16021790555050505050565b61135283838361157e565b611405575f73ffffffffffffffffffffffffffffffffffffffff168373ffffffffffffffffffffffffffffffffffffffff16036113c657806040517f7e2732890000000000000000000000000000000000000000000000000000000081526004016113bd91906119b2565b60405180910390fd5b81816040517f177e802f0000000000000000000000000000000000000000000000000000000081526004016113fc929190611f03565b60405180910390fd5b505050565b611414838361163e565b61142861141f610b19565b5f858585610ec3565b505050565b5f5f5f90507a184f03e93ff9f4daa797ed6e38ed64bf6a1f0100000000000000008310611489577a184f03e93ff9f4daa797ed6e38ed64bf6a1f010000000000000000838161147f5761147e611ed6565b5b0492506040810190505b6d04ee2d6d415b85acef810000000083106114c6576d04ee2d6d415b85acef810000000083816114bc576114bb611ed6565b5b0492506020810190505b662386f26fc1000083106114f557662386f26fc1000083816114eb576114ea611ed6565b5b0492506010810190505b6305f5e100831061151e576305f5e100838161151457611513611ed6565b5b0492506008810190505b612710831061154357612710838161153957611538611ed6565b5b0492506004810190505b60648310611566576064838161155c5761155b611ed6565b5b0492506002810190505b600a8310611575576001810190505b80915050919050565b5f5f73ffffffffffffffffffffffffffffffffffffffff168373ffffffffffffffffffffffffffffffffffffffff161415801561163557508273ffffffffffffffffffffffffffffffffffffffff168473ffffffffffffffffffffffffffffffffffffffff1614806115f657506115f58484610963565b5b8061163457508273ffffffffffffffffffffffffffffffffffffffff1661161c83610ae0565b73ffffffffffffffffffffffffffffffffffffffff16145b5b90509392505050565b5f73ffffffffffffffffffffffffffffffffffffffff168273ffffffffffffffffffffffffffffffffffffffff16036116ae575f6040517f64a0ae920000000000000000000000000000000000000000000000000000000081526004016116a59190611922565b60405180910390fd5b5f6116ba83835f610b32565b90505f73ffffffffffffffffffffffffffffffffffffffff168173ffffffffffffffffffffffffffffffffffffffff161461172c575f6040517f73c6ac6e0000000000000000000000000000000000000000000000000000000081526004016117239190611922565b60405180910390fd5b505050565b5f604051905090565b5f5ffd5b5f5ffd5b5f7fffffffff0000000000000000000000000000000000000000000000000000000082169050919050565b61177681611742565b8114611780575f5ffd5b50565b5f813590506117918161176d565b92915050565b5f602082840312156117ac576117ab61173a565b5b5f6117b984828501611783565b91505092915050565b5f8115159050919050565b6117d6816117c2565b82525050565b5f6020820190506117ef5f8301846117cd565b92915050565b5f81519050919050565b5f82825260208201905092915050565b8281835e5f83830152505050565b5f601f19601f8301169050919050565b5f611837826117f5565b61184181856117ff565b935061185181856020860161180f565b61185a8161181d565b840191505092915050565b5f6020820190508181035f83015261187d818461182d565b905092915050565b5f819050919050565b61189781611885565b81146118a1575f5ffd5b50565b5f813590506118b28161188e565b92915050565b5f602082840312156118cd576118cc61173a565b5b5f6118da848285016118a4565b91505092915050565b5f73ffffffffffffffffffffffffffffffffffffffff82169050919050565b5f61190c826118e3565b9050919050565b61191c81611902565b82525050565b5f6020820190506119355f830184611913565b92915050565b61194481611902565b811461194e575f5ffd5b50565b5f8135905061195f8161193b565b92915050565b5f5f6040838503121561197b5761197a61173a565b5b5f61198885828601611951565b9250506020611999858286016118a4565b9150509250929050565b6119ac81611885565b82525050565b5f6020820190506119c55f8301846119a3565b92915050565b5f5f5f606084860312156119e2576119e161173a565b5b5f6119ef86828701611951565b9350506020611a0086828701611951565b9250506040611a11868287016118a4565b9150509250925092565b5f60208284031215611a3057611a2f61173a565b5b5f611a3d84828501611951565b91505092915050565b611a4f816117c2565b8114611a59575f5ffd5b50565b5f81359050611a6a81611a46565b92915050565b5f5f60408385031215611a8657611a8561173a565b5b5f611a9385828601611951565b9250506020611aa485828601611a5c565b9150509250929050565b5f5ffd5b5f5ffd5b7f4e487b71000000000000000000000000000000000000000000000000000000005f52604160045260245ffd5b611aec8261181d565b810181811067ffffffffffffffff82111715611b0b57611b0a611ab6565b5b80604052505050565b5f611b1d611731565b9050611b298282611ae3565b919050565b5f67ffffffffffffffff821115611b4857611b47611ab6565b5b611b518261181d565b9050602081019050919050565b828183375f83830152505050565b5f611b7e611b7984611b2e565b611b14565b905082815260208101848484011115611b9a57611b99611ab2565b5b611ba5848285611b5e565b509392505050565b5f82601f830112611bc157611bc0611aae565b5b8135611bd1848260208601611b6c565b91505092915050565b5f5f5f5f60808587031215611bf257611bf161173a565b5b5f611bff87828801611951565b9450506020611c1087828801611951565b9350506040611c21878288016118a4565b925050606085013567ffffffffffffffff811115611c4257611c4161173e565b5b611c4e87828801611bad565b91505092959194509250565b5f5f60408385031215611c7057611c6f61173a565b5b5f611c7d85828601611951565b9250506020611c8e85828601611951565b9150509250929050565b7f4e487b71000000000000000000000000000000000000000000000000000000005f52602260045260245ffd5b5f6002820490506001821680611cdc57607f821691505b602082108103611cef57611cee611c98565b5b50919050565b5f606082019050611d085f830186611913565b611d1560208301856119a3565b611d226040830184611913565b949350505050565b7f4e487b71000000000000000000000000000000000000000000000000000000005f52601160045260245ffd5b5f611d6182611885565b91507fffffffffffffffffffffffffffffffffffffffffffffffffffffffffffffffff8203611d9357611d92611d2a565b5b600182019050919050565b5f81905092915050565b5f611db2826117f5565b611dbc8185611d9e565b9350611dcc81856020860161180f565b80840191505092915050565b5f611de38285611da8565b9150611def8284611da8565b91508190509392505050565b5f81519050919050565b5f82825260208201905092915050565b5f611e1f82611dfb565b611e298185611e05565b9350611e3981856020860161180f565b611e428161181d565b840191505092915050565b5f608082019050611e605f830187611913565b611e6d6020830186611913565b611e7a60408301856119a3565b8181036060830152611e8c8184611e15565b905095945050505050565b5f81519050611ea58161176d565b92915050565b5f60208284031215611ec057611ebf61173a565b5b5f611ecd84828501611e97565b91505092915050565b7f4e487b71000000000000000000000000000000000000000000000000000000005f52601260045260245ffd5b5f604082019050611f165f830185611913565b611f2360208301846119a3565b939250505056fea26469706673582212206ca15d134a637e3c7e45c2ff3e7909dfd4198a6fe6b375f88c1f6ac4f70b4c8564736f6c634300081c0033",
        "linkReferences": {}
    },
    "methodIdentifiers": {
        "approve(address,uint256)": "095ea7b3",
        "balanceOf(address)": "70a08231",
        "getApproved(uint256)": "081812fc",
        "isApprovedForAll(address,address)": "e985e9c5",
        "isOnboarded(address)": "ca8e1b07",
        "name()": "06fdde03",
        "onboardClient()": "6972d45a",
        "ownerOf(uint256)": "6352211e",
        "safeTransferFrom(address,address,uint256)": "42842e0e",
        "safeTransferFrom(address,address,uint256,bytes)": "b88d4fde",
        "setApprovalForAll(address,bool)": "a22cb465",
        "supportsInterface(bytes4)": "01ffc9a7",
        "symbol()": "95d89b41",
        "tokenURI(uint256)": "c87b56dd",
        "totalSupply()": "18160ddd",
        "transferFrom(address,address,uint256)": "23b872dd"
    },
    "id": 42
}