{
  "abi": [
    {
      "type": "function",
      "name": "approveMilestone",
      "inputs": [
        {
          "name": "_milestoneId",
          "type": "uint256",
          "internalType": "uint256"
        }
      ],
      "outputs": [],
      "stateMutability": "nonpayable"
    },
    {
      "type": "function",
      "name": "budget",
      "inputs": [],
      "outputs": [
        {
          "name": "",
          "type": "uint256",
          "internalType": "uint256"
        }
      ],
      "stateMutability": "view"
    },
    {
      "type": "function",
      "name": "cancelAgreement",
      "inputs": [],
      "outputs": [],
      "stateMutability": "nonpayable"
    },
    {
      "type": "function",
      "name": "client",
      "inputs": [],
      "outputs": [
        {
          "name": "",
          "type": "address",
          "internalType": "address"
        }
      ],
      "stateMutability": "view"
    },
    {
      "type": "function",
      "name": "dao",
      "inputs": [],
      "outputs": [
        {
          "name": "",
          "type": "address",
          "internalType": "address"
        }
      ],
      "stateMutability": "view"
    },
    {
      "type": "function",
      "name": "depositPayment",
      "inputs": [],
      "outputs": [],
      "stateMutability": "nonpayable"
    },
    {
      "type": "function",
      "name": "initialize",
      "inputs": [
        {
          "name": "_dao",
          "type": "address",
          "internalType": "address"
        },
        {
          "name": "_client",
          "type": "address",
          "internalType": "address"
        },
        {
          "name": "_paymentToken",
          "type": "address",
          "internalType": "address"
        },
        {
          "name": "_budget",
          "type": "uint256",
          "internalType": "uint256"
        },
        {
          "name": "_milestone",
          "type": "tuple[]",
          "internalType": "struct ServiceAgreement.Milestone[]",
          "components": [
            {
              "name": "paymentAmount",
              "type": "uint256",
              "internalType": "uint256"
            },
            {
              "name": "isApproved",
              "type": "bool",
              "internalType": "bool"
            }
          ]
        }
      ],
      "outputs": [],
      "stateMutability": "nonpayable"
    },
    {
      "type": "function",
      "name": "milestones",
      "inputs": [
        {
          "name": "",
          "type": "uint256",
          "internalType": "uint256"
        }
      ],
      "outputs": [
        {
          "name": "paymentAmount",
          "type": "uint256",
          "internalType": "uint256"
        },
        {
          "name": "isApproved",
          "type": "bool",
          "internalType": "bool"
        }
      ],
      "stateMutability": "view"
    },
    {
      "type": "function",
      "name": "paymentToken",
      "inputs": [],
      "outputs": [
        {
          "name": "",
          "type": "address",
          "internalType": "address"
        }
      ],
      "stateMutability": "view"
    },
    {
      "type": "function",
      "name": "status",
      "inputs": [],
      "outputs": [
        {
          "name": "",
          "type": "uint8",
          "internalType": "enum ServiceAgreement.Status"
        }
      ],
      "stateMutability": "view"
    },
    {
      "type": "event",
      "name": "MilestoneApproved",
      "inputs": [
        {
          "name": "milestoneId",
          "type": "uint256",
          "indexed": true,
          "internalType": "uint256"
        },
        {
          "name": "agent",
          "type": "address",
          "indexed": false,
          "internalType": "address"
        }
      ],
      "anonymous": false
    },
    {
      "type": "event",
      "name": "PaymentReleased",
      "inputs": [
        {
          "name": "amount",
          "type": "uint256",
          "indexed": false,
          "internalType": "uint256"
        },
        {
          "name": "agent",
          "type": "address",
          "indexed": false,
          "internalType": "address"
        }
      ],
      "anonymous": false
    },
    {
      "type": "error",
      "name": "ReentrancyGuardReentrantCall",
      "inputs": []
    },
    {
      "type": "error",
      "name": "ServiceAgreement__AreadyInitialized",
      "inputs": []
    },
    {
      "type": "error",
      "name": "ServiceAgreement__ContractNotInitilized",
      "inputs": []
    },
    {
      "type": "error",
      "name": "ServiceAgreement__InvalidCaller",
      "inputs": []
    },
    {
      "type": "error",
      "name": "ServiceAgreement__InvalidMilestoneId",
      "inputs": []
    },
    {
      "type": "error",
      "name": "ServiceAgreement__InvalidSignature",
      "inputs": []
    },
    {
      "type": "error",
      "name": "ServiceAgreement__MilestoneAlreadyApproved",
      "inputs": []
    },
    {
      "type": "error",
      "name": "ServiceAgreement__PaymentFailed",
      "inputs": []
    }
  ],
  "bytecode": {
    "object": "0x6080604052348015600e575f5ffd5b5060015f8190555061144b806100235f395ff3fe608060405234801561000f575f5ffd5b506004361061009c575f3560e01c8063aa5e215311610064578063aa5e215314610134578063c438b40f1461013e578063cf6ad8761461015a578063e89e4ed614610164578063ed01bf29146101955761009c565b8063109e94cf146100a0578063200d2ed2146100be5780633013ce29146100dc5780634162169f146100fa5780638ea11aa114610118575b5f5ffd5b6100a86101b3565b6040516100b59190610d6c565b60405180910390f35b6100c66101d8565b6040516100d39190610df8565b60405180910390f35b6100e46101ea565b6040516100f19190610d6c565b60405180910390f35b61010261020f565b60405161010f9190610d6c565b60405180910390f35b610132600480360381019061012d9190611055565b610235565b005b61013c61043b565b005b610158600480360381019061015391906110e8565b610609565b005b61016261091f565b005b61017e600480360381019061017991906110e8565b610c9f565b60405161018c929190611131565b60405180910390f35b61019d610cda565b6040516101aa9190611158565b60405180910390f35b60015f9054906101000a900473ffffffffffffffffffffffffffffffffffffffff1681565b60045f9054906101000a900460ff1681565b60025f9054906101000a900473ffffffffffffffffffffffffffffffffffffffff1681565b600460019054906101000a900473ffffffffffffffffffffffffffffffffffffffff1681565b5f73ffffffffffffffffffffffffffffffffffffffff1660015f9054906101000a900473ffffffffffffffffffffffffffffffffffffffff1673ffffffffffffffffffffffffffffffffffffffff16146102bb576040517f38c6fecc00000000000000000000000000000000000000000000000000000000815260040160405180910390fd5b84600460016101000a81548173ffffffffffffffffffffffffffffffffffffffff021916908373ffffffffffffffffffffffffffffffffffffffff1602179055508360015f6101000a81548173ffffffffffffffffffffffffffffffffffffffff021916908373ffffffffffffffffffffffffffffffffffffffff1602179055508260025f6101000a81548173ffffffffffffffffffffffffffffffffffffffff021916908373ffffffffffffffffffffffffffffffffffffffff160217905550816005819055505f5f90505b815181101561040a5760038282815181106103a6576103a5611171565b5b6020026020010151908060018154018082558091505060019003905f5260205f2090600202015f909190919091505f820151815f01556020820151816001015f6101000a81548160ff02191690831515021790555050508080600101915050610388565b505f60045f6101000a81548160ff0219169083600281111561042f5761042e610d85565b5b02179055505050505050565b5f600281111561044e5761044d610d85565b5b60045f9054906101000a900460ff16600281111561046f5761046e610d85565b5b146104af576040517f08c379a00000000000000000000000000000000000000000000000000000000081526004016104a6906111f8565b60405180910390fd5b6104b7610ce0565b5f73ffffffffffffffffffffffffffffffffffffffff1660015f9054906101000a900473ffffffffffffffffffffffffffffffffffffffff1673ffffffffffffffffffffffffffffffffffffffff160361053d576040517f97212ff900000000000000000000000000000000000000000000000000000000815260040160405180910390fd5b60025f9054906101000a900473ffffffffffffffffffffffffffffffffffffffff1673ffffffffffffffffffffffffffffffffffffffff166323b872dd60015f9054906101000a900473ffffffffffffffffffffffffffffffffffffffff16306005546040518463ffffffff1660e01b81526004016105be93929190611216565b6020604051808303815f875af11580156105da573d5f5f3e3d5ffd5b505050506040513d601f19601f820116820180604052508101906105fe919061125f565b50610607610d24565b565b5f600281111561061c5761061b610d85565b5b60045f9054906101000a900460ff16600281111561063d5761063c610d85565b5b1461067d576040517f08c379a0000000000000000000000000000000000000000000000000000000008152600401610674906111f8565b60405180910390fd5b610685610ce0565b5f81108061069857506003805490508110155b156106cf576040517f9c381f2e00000000000000000000000000000000000000000000000000000000815260040160405180910390fd5b5f600382815481106106e4576106e3611171565b5b905f5260205f2090600202019050806001015f9054906101000a900460ff161561073a576040517fa1b97c2d00000000000000000000000000000000000000000000000000000000815260040160405180910390fd5b60025f9054906101000a900473ffffffffffffffffffffffffffffffffffffffff1673ffffffffffffffffffffffffffffffffffffffff1663a9059cbb600460019054906101000a900473ffffffffffffffffffffffffffffffffffffffff16835f01546040518363ffffffff1660e01b81526004016107bb92919061128a565b6020604051808303815f875af11580156107d7573d5f5f3e3d5ffd5b505050506040513d601f19601f820116820180604052508101906107fb919061125f565b506001816001015f6101000a81548160ff021916908315150217905550817f553edf5d6a50b30b5e1faa5428a9962e9b3af648e5ab3791bf7e79ccb10f7f55600460019054906101000a900473ffffffffffffffffffffffffffffffffffffffff1660405161086a9190610d6c565b60405180910390a27f4156924bd7e340b19303af17bf5323d66fae5dc16f350319092e0839c8543683815f0154600460019054906101000a900473ffffffffffffffffffffffffffffffffffffffff166040516108c89291906112b1565b60405180910390a160016003805490506108e29190611305565b820361091357600160045f6101000a81548160ff0219169083600281111561090d5761090c610d85565b5b02179055505b5061091c610d24565b50565b5f600281111561093257610931610d85565b5b60045f9054906101000a900460ff16600281111561095357610952610d85565b5b14610993576040517f08c379a000000000000000000000000000000000000000000000000000000000815260040161098a906111f8565b60405180910390fd5b61099b610ce0565b60015f9054906101000a900473ffffffffffffffffffffffffffffffffffffffff1673ffffffffffffffffffffffffffffffffffffffff163373ffffffffffffffffffffffffffffffffffffffff1614610a21576040517fd85251a800000000000000000000000000000000000000000000000000000000815260040160405180910390fd5b600260045f6101000a81548160ff02191690836002811115610a4657610a45610d85565b5b02179055505f60025f9054906101000a900473ffffffffffffffffffffffffffffffffffffffff1673ffffffffffffffffffffffffffffffffffffffff166370a08231306040518263ffffffff1660e01b8152600401610aa69190610d6c565b602060405180830381865afa158015610ac1573d5f5f3e3d5ffd5b505050506040513d601f19601f82011682018060405250810190610ae5919061134c565b905060025f9054906101000a900473ffffffffffffffffffffffffffffffffffffffff1673ffffffffffffffffffffffffffffffffffffffff1663a9059cbb60015f9054906101000a900473ffffffffffffffffffffffffffffffffffffffff166064605a85610b559190611377565b610b5f91906113e5565b6040518363ffffffff1660e01b8152600401610b7c92919061128a565b6020604051808303815f875af1158015610b98573d5f5f3e3d5ffd5b505050506040513d601f19601f82011682018060405250810190610bbc919061125f565b5060025f9054906101000a900473ffffffffffffffffffffffffffffffffffffffff1673ffffffffffffffffffffffffffffffffffffffff1663a9059cbb600460019054906101000a900473ffffffffffffffffffffffffffffffffffffffff166064600a85610c2c9190611377565b610c3691906113e5565b6040518363ffffffff1660e01b8152600401610c5392919061128a565b6020604051808303815f875af1158015610c6f573d5f5f3e3d5ffd5b505050506040513d601f19601f82011682018060405250810190610c93919061125f565b5050610c9d610d24565b565b60038181548110610cae575f80fd5b905f5260205f2090600202015f91509050805f015490806001015f9054906101000a900460ff16905082565b60055481565b60025f5403610d1b576040517f3ee5aeb500000000000000000000000000000000000000000000000000000000815260040160405180910390fd5b60025f81905550565b60015f81905550565b5f73ffffffffffffffffffffffffffffffffffffffff82169050919050565b5f610d5682610d2d565b9050919050565b610d6681610d4c565b82525050565b5f602082019050610d7f5f830184610d5d565b92915050565b7f4e487b71000000000000000000000000000000000000000000000000000000005f52602160045260245ffd5b60038110610dc357610dc2610d85565b5b50565b5f819050610dd382610db2565b919050565b5f610de282610dc6565b9050919050565b610df281610dd8565b82525050565b5f602082019050610e0b5f830184610de9565b92915050565b5f604051905090565b5f5ffd5b5f5ffd5b610e2b81610d4c565b8114610e35575f5ffd5b50565b5f81359050610e4681610e22565b92915050565b5f819050919050565b610e5e81610e4c565b8114610e68575f5ffd5b50565b5f81359050610e7981610e55565b92915050565b5f5ffd5b5f601f19601f8301169050919050565b7f4e487b71000000000000000000000000000000000000000000000000000000005f52604160045260245ffd5b610ec982610e83565b810181811067ffffffffffffffff82111715610ee857610ee7610e93565b5b80604052505050565b5f610efa610e11565b9050610f068282610ec0565b919050565b5f67ffffffffffffffff821115610f2557610f24610e93565b5b602082029050602081019050919050565b5f5ffd5b5f5ffd5b5f8115159050919050565b610f5281610f3e565b8114610f5c575f5ffd5b50565b5f81359050610f6d81610f49565b92915050565b5f60408284031215610f8857610f87610f3a565b5b610f926040610ef1565b90505f610fa184828501610e6b565b5f830152506020610fb484828501610f5f565b60208301525092915050565b5f610fd2610fcd84610f0b565b610ef1565b90508083825260208201905060408402830185811115610ff557610ff4610f36565b5b835b8181101561101e578061100a8882610f73565b845260208401935050604081019050610ff7565b5050509392505050565b5f82601f83011261103c5761103b610e7f565b5b813561104c848260208601610fc0565b91505092915050565b5f5f5f5f5f60a0868803121561106e5761106d610e1a565b5b5f61107b88828901610e38565b955050602061108c88828901610e38565b945050604061109d88828901610e38565b93505060606110ae88828901610e6b565b925050608086013567ffffffffffffffff8111156110cf576110ce610e1e565b5b6110db88828901611028565b9150509295509295909350565b5f602082840312156110fd576110fc610e1a565b5b5f61110a84828501610e6b565b91505092915050565b61111c81610e4c565b82525050565b61112b81610f3e565b82525050565b5f6040820190506111445f830185611113565b6111516020830184611122565b9392505050565b5f60208201905061116b5f830184611113565b92915050565b7f4e487b71000000000000000000000000000000000000000000000000000000005f52603260045260245ffd5b5f82825260208201905092915050565b7f41677265656d656e7420696e61637469766500000000000000000000000000005f82015250565b5f6111e260128361119e565b91506111ed826111ae565b602082019050919050565b5f6020820190508181035f83015261120f816111d6565b9050919050565b5f6060820190506112295f830186610d5d565b6112366020830185610d5d565b6112436040830184611113565b949350505050565b5f8151905061125981610f49565b92915050565b5f6020828403121561127457611273610e1a565b5b5f6112818482850161124b565b91505092915050565b5f60408201905061129d5f830185610d5d565b6112aa6020830184611113565b9392505050565b5f6040820190506112c45f830185611113565b6112d16020830184610d5d565b9392505050565b7f4e487b71000000000000000000000000000000000000000000000000000000005f52601160045260245ffd5b5f61130f82610e4c565b915061131a83610e4c565b9250828203905081811115611332576113316112d8565b5b92915050565b5f8151905061134681610e55565b92915050565b5f6020828403121561136157611360610e1a565b5b5f61136e84828501611338565b91505092915050565b5f61138182610e4c565b915061138c83610e4c565b925082820261139a81610e4c565b915082820484148315176113b1576113b06112d8565b5b5092915050565b7f4e487b71000000000000000000000000000000000000000000000000000000005f52601260045260245ffd5b5f6113ef82610e4c565b91506113fa83610e4c565b92508261140a576114096113b8565b5b82820490509291505056fea26469706673582212203e8d1f79ebcb0ceae98ddb727972ba4b4a3dd90cc39602afaec95f9d47e6171e64736f6c634300081c0033",
    "linkReferences": {}
  },
  "methodIdentifiers": {
    "approveMilestone(uint256)": "c438b40f",
    "budget()": "ed01bf29",
    "cancelAgreement()": "cf6ad876",
    "client()": "109e94cf",
    "dao()": "4162169f",
    "depositPayment()": "aa5e2153",
    "initialize(address,address,address,uint256,(uint256,bool)[])": "8ea11aa1",
    "milestones(uint256)": "e89e4ed6",
    "paymentToken()": "3013ce29",
    "status()": "200d2ed2"
  },
  "id": 43
}