{
  "abi": [
    {
      "type": "constructor",
      "inputs": [
        {
          "name": "_registry",
          "type": "address",
          "internalType": "address"
        }
      ],
      "stateMutability": "nonpayable"
    },
    {
      "type": "function",
      "name": "agreements",
      "inputs": [
        {
          "name": "",
          "type": "address",
          "internalType": "address"
        }
      ],
      "outputs": [
        {
          "name": "client",
          "type": "address",
          "internalType": "address"
        },
        {
          "name": "paymentToken",
          "type": "address",
          "internalType": "contract ERC20"
        },
        {
          "name": "budget",
          "type": "uint256",
          "internalType": "uint256"
        },
        {
          "name": "active",
          "type": "bool",
          "internalType": "bool"
        }
      ],
      "stateMutability": "view"
    },
    {
      "type": "function",
      "name": "createAgreement",
      "inputs": [
        {
          "name": "paymentToken",
          "type": "address",
          "internalType": "contract ERC20"
        },
        {
          "name": "budget",
          "type": "uint256",
          "internalType": "uint256"
        }
      ],
      "outputs": [],
      "stateMutability": "nonpayable"
    },
    {
      "type": "function",
      "name": "registry",
      "inputs": [],
      "outputs": [
        {
          "name": "",
          "type": "address",
          "internalType": "contract ClientRegistry"
        }
      ],
      "stateMutability": "view"
    },
    {
      "type": "event",
      "name": "AgreementCreated",
      "inputs": [
        {
          "name": "client",
          "type": "address",
          "indexed": true,
          "internalType": "address"
        },
        {
          "name": "token",
          "type": "address",
          "indexed": false,
          "internalType": "contract ERC20"
        },
        {
          "name": "budget",
          "type": "uint256",
          "indexed": false,
          "internalType": "uint256"
        }
      ],
      "anonymous": false
    },
    {
      "type": "error",
      "name": "ServiceAgreement__TransactionFaild",
      "inputs": []
    },
    {
      "type": "error",
      "name": "ServiceAgreement__UserNotFound",
      "inputs": []
    }
  ],
  "bytecode": {
    "object": "0x608060405234801561000f575f5ffd5b506040516108b73803806108b7833981810160405281019061003191906100d4565b805f5f6101000a81548173ffffffffffffffffffffffffffffffffffffffff021916908373ffffffffffffffffffffffffffffffffffffffff160217905550506100ff565b5f5ffd5b5f73ffffffffffffffffffffffffffffffffffffffff82169050919050565b5f6100a38261007a565b9050919050565b6100b381610099565b81146100bd575f5ffd5b50565b5f815190506100ce816100aa565b92915050565b5f602082840312156100e9576100e8610076565b5b5f6100f6848285016100c0565b91505092915050565b6107ab8061010c5f395ff3fe608060405234801561000f575f5ffd5b506004361061003f575f3560e01c806333a82a9b146100435780633ce2aa991461005f5780637b10399914610092575b5f5ffd5b61005d60048036038101906100589190610509565b6100b0565b005b61007960048036038101906100749190610571565b6103cd565b604051610089949392919061062f565b60405180910390f35b61009a610443565b6040516100a79190610692565b60405180910390f35b5f5f9054906101000a900473ffffffffffffffffffffffffffffffffffffffff1673ffffffffffffffffffffffffffffffffffffffff1663ca8e1b07336040518263ffffffff1660e01b815260040161010991906106ab565b602060405180830381865afa158015610124573d5f5f3e3d5ffd5b505050506040513d601f19601f8201168201806040525081019061014891906106ee565b61017e576040517feab5dfe100000000000000000000000000000000000000000000000000000000815260040160405180910390fd5b5f8273ffffffffffffffffffffffffffffffffffffffff166323b872dd3330856040518463ffffffff1660e01b81526004016101bc93929190610719565b6020604051808303815f875af11580156101d8573d5f5f3e3d5ffd5b505050506040513d601f19601f820116820180604052508101906101fc91906106ee565b905080610235576040517fb1e5fc1d00000000000000000000000000000000000000000000000000000000815260040160405180910390fd5b60405180608001604052803373ffffffffffffffffffffffffffffffffffffffff1681526020018473ffffffffffffffffffffffffffffffffffffffff1681526020018381526020016001151581525060015f3373ffffffffffffffffffffffffffffffffffffffff1673ffffffffffffffffffffffffffffffffffffffff1681526020019081526020015f205f820151815f015f6101000a81548173ffffffffffffffffffffffffffffffffffffffff021916908373ffffffffffffffffffffffffffffffffffffffff1602179055506020820151816001015f6101000a81548173ffffffffffffffffffffffffffffffffffffffff021916908373ffffffffffffffffffffffffffffffffffffffff160217905550604082015181600201556060820151816003015f6101000a81548160ff0219169083151502179055509050503373ffffffffffffffffffffffffffffffffffffffff167f97286e4b053ca456698b6c1063038a2880f871854db0cc84c292d07e503cc94f84846040516103c092919061074e565b60405180910390a2505050565b6001602052805f5260405f205f91509050805f015f9054906101000a900473ffffffffffffffffffffffffffffffffffffffff1690806001015f9054906101000a900473ffffffffffffffffffffffffffffffffffffffff1690806002015490806003015f9054906101000a900460ff16905084565b5f5f9054906101000a900473ffffffffffffffffffffffffffffffffffffffff1681565b5f5ffd5b5f73ffffffffffffffffffffffffffffffffffffffff82169050919050565b5f6104948261046b565b9050919050565b5f6104a58261048a565b9050919050565b6104b58161049b565b81146104bf575f5ffd5b50565b5f813590506104d0816104ac565b92915050565b5f819050919050565b6104e8816104d6565b81146104f2575f5ffd5b50565b5f81359050610503816104df565b92915050565b5f5f6040838503121561051f5761051e610467565b5b5f61052c858286016104c2565b925050602061053d858286016104f5565b9150509250929050565b6105508161048a565b811461055a575f5ffd5b50565b5f8135905061056b81610547565b92915050565b5f6020828403121561058657610585610467565b5b5f6105938482850161055d565b91505092915050565b6105a58161048a565b82525050565b5f819050919050565b5f6105ce6105c96105c48461046b565b6105ab565b61046b565b9050919050565b5f6105df826105b4565b9050919050565b5f6105f0826105d5565b9050919050565b610600816105e6565b82525050565b61060f816104d6565b82525050565b5f8115159050919050565b61062981610615565b82525050565b5f6080820190506106425f83018761059c565b61064f60208301866105f7565b61065c6040830185610606565b6106696060830184610620565b95945050505050565b5f61067c826105d5565b9050919050565b61068c81610672565b82525050565b5f6020820190506106a55f830184610683565b92915050565b5f6020820190506106be5f83018461059c565b92915050565b6106cd81610615565b81146106d7575f5ffd5b50565b5f815190506106e8816106c4565b92915050565b5f6020828403121561070357610702610467565b5b5f610710848285016106da565b91505092915050565b5f60608201905061072c5f83018661059c565b610739602083018561059c565b6107466040830184610606565b949350505050565b5f6040820190506107615f8301856105f7565b61076e6020830184610606565b939250505056fea264697066735822122065d4a4fa6edd3271ef68a29a04990ee6a22e9375c0386de1c469862d57f4923664736f6c634300081c0033",
    "linkReferences": {}
  },
  "methodIdentifiers": {
    "agreements(address)": "3ce2aa99",
    "createAgreement(address,uint256)": "33a82a9b",
    "registry()": "7b103999"
  },
  "id": 37
}